:020000040800F2
:1000000070BA00203D0600084504000847040008B7
:100010004B0400084F0400085304000800000000CF
:10002000000000000000000000000000570400086D
:100030005904000800000000D3520108A52B000855
:10004000570600085706000857060008570600081C
:10005000570600085706000857060008570600080C
:1000600057060008570600085706000857060008FC
:1000700057060008570600085706000857060008EC
:1000800057060008570600085706000857060008DC
:10009000570600085706000857060008F3380008FE
:1000A00057060008570600085706000857060008BC
:1000B00057060008D73900085706000857060008F9
:1000C000570600085706000857060008570600089C
:1000D000C33100087D2D0008E32E000857060008F4
:1000E000570600085706000857060008570600087C
:1000F000570600085706000857060008570600086C
:10010000570600085706000857060008570600085B
:10011000570600085706000857060008570600084B
:10012000570600085706000857060008570600083B
:1001300000F002F800F06BF80AA090E8000C82448E
:100140008344AAF10107DA4501D100F060F8AFF26B
:10015000090EBAE80F0013F0010F18BFFB1A43F0A5
:1001600001031847EC5D01000C5E01000A444FF0EA
:10017000000C10F8013B13F0070408BF10F8014B06
:100180001D1108BF10F8015B641E05D010F8016B4B
:10019000641E01F8016BF9D113F0080F1EBF10F8AF
:1001A000014BAD1C0C1B09D16D1E58BF01F801CBD2
:1001B000FAD505E014F8016B01F8016B6D1EF9D555
:1001C0009142D6D37047000000230024002500266A
:1001D000103A28BF78C1FBD8520728BF30C148BFAA
:1001E0000B607047642915F07181732915F06983DC
:1001F000002070471FB515F0F5FA0400002000211B
:1002000015F0C2FB401C60601FBD10B510BD15F09D
:100210008FFB1146FFF7EEFF00F09AF815F0ADFBEB
:1002200003B4FFF7F2FF03BC02F046FD002427E011
:10023000684803F09DFD67480088011260002C307B
:10024000654A11546348017860002D3011546148AB
:1002500040880112600000F5087011545D488178F3
:10026000600000F221201154601C84B2FA2C07D1E6
:1002700000244FF4FA7300221146104614F05CFF7C
:10028000D6E70EE014F0FEFF044603F057FC2046CC
:1002900014F0FCFF642300221146104614F04CFFBA
:1002A00000BFEFE708E003F0B5FB4FF4FA73032259
:1002B0000021084614F040FFF5E7002013F081FC10
:1002C0004649086013E001214448006813F0C1FD6D
:1002D0004348006808B9012000E000204049086058
:1002E0004FF4FA7300221146104614F025FFEAE796
:1002F00070B5044600BF40F27121062003F078FB80
:1003000012F05EFE14F0BEFF05460A23354A0021B6
:10031000AFF2590014F096FB0923334A0021AFF2E3
:100320007B0014F08FFB0723304A0021AFF2AD00B1
:1003300014F088FB06232E4A0021AFF20F1014F0B0
:1003400081FBFF2014F0FEFD284614F09FFF70BDD6
:1003500010B502F033FC4FF4A06000F08FF94FF4B9
:10036000E13002F0BCFC4FF4164002F044FD02F014
:100370000DFE03F087FC12F0EEFC0AE01DA015F064
:100380003BF84FF4FA7002F06AFC4FF4FA7002F096
:1003900066FC03F0B2FE0028F0D11AA015F02CF88C
:1003A00006E01DA015F028F84FF4FA7002F057FC93
:1003B00004F0B1F80028F4D11CA015F01DF80C23AE
:1003C0001F4A0021AFF2D70014F03CFB12F0E0FD11
:1003D000002010BD06000020609D00200C000020C1
:1003E000AC012242BC050020BC040020BC0300205C
:1003F0008C0D0020B3F5CABCBBAFCAA7B0DC0A0D98
:10040000000000004C77697020496E6974205375B4
:10041000636365737321000074637020636C6965A6
:100420006E74206661696C0A0D0000005443502010
:10043000436C69656E742053756363657373210043
:100440008C0E0020704700BFFEE700BFFEE700BF34
:10045000FEE700BFFEE77047704700000CB50020C4
:10046000019000906C48006840F480306A49086050
:1004700000BF6948006800F4003000900198401CFB
:100480000190009818B90198B0F5A06FF1D16248B9
:10049000006800F4003010B10120009001E000205D
:1004A00000900098012843D15C48006840F010009B
:1004B0005A4908600846006820F0030008600846B2
:1004C000006840F0020008605348406852494860A4
:1004D0000846406848600846406840F480604860CC
:1004E0000846406820F47C1048600846406840F4A4
:1004F000E81048600846006840F08070086000BF5F
:100500004548006800F000700028F9D04248406873
:1005100020F00300404948600846406840F002006F
:10052000486000BF3C48406800F00C000828F9D142
:100530000CBD10B5FFF792FF10BD10B5364800682E
:1005400040F00100344908600846406834490840DA
:100550003149486008460068324908402E49086021
:100560000846006820F4802008600846406820F4AF
:10057000FE0048604FF41F008860FFF7DAFF4FF07D
:1005800000602949086010BD10B50021002000223C
:10059000214B5B6803F00C0121B1042906D0082926
:1005A00028D107E0214B224C236027E01F4B204C31
:1005B000236023E0184B5B6803F47010164B5B68F4
:1005C00003F48032022303EB904022B9194B4343DA
:1005D000174C23600DE0104B5B6803F4003323B12C
:1005E000144B4343124C236003E0104B4343104C25
:1005F000236003E00D4B0E4C236000BF00BF064B91
:100600005B68C3F303130C4CE15C094B1B68CB40E4
:10061000074C236010BD0000001002400020024083
:100620000000FFF8FFFFF6FE08ED00E000127A0080
:100630001000002000093D001400002009488047F8
:1006400009480047FEE7FEE7FEE7FEE7FEE7FEE7B4
:10065000FEE7FEE7FEE7FEE704480549054A064BCC
:10066000704700003B0500083101000870B400200D
:1006700070BA002070B6002070B6002031490143E6
:10068000314A1160704770B5002100230F22C478F1
:1006900004B32D4C246804F4E064C4F5E064210A3A
:1006A000C1F10403CA40447804FA03F18478144089
:1006B00021430901254C0678A155047804F01F0553
:1006C0000124AC4005786D11AD0005F1E025C5F8B9
:1006D000004109E0047804F01F050124AC401C4DE2
:1006E0000678761145F8264070BD1A4A0A40024342
:1006F000154B1B1F1A60704739B1134A121D12683F
:100700000243114B1B1D1A6006E00F4A121D1268AE
:1007100082430D4B1B1D1A607047042808D14FF00F
:10072000E021096941F004014FF0E022116107E086
:100730004FF0E021096921F004014FF0E02211613E
:10074000704700000000FA050CED00E000E400E056
:1007500080E100E080FFFF1FDF48006840F00100FB
:10076000DD49086008464068DC490840DA494860CD
:1007700008460068DA490840D7490860084600681A
:1007800020F4802008600846406820F4FE0048609D
:100790004FF41F0088607047CF49096821F4803109
:1007A000CD4A11601146096821F480211160B0F52D
:1007B000803F03D0B0F5802F0ED106E0C64909680E
:1007C00041F48031C44A116007E0C349096841F42B
:1007D000A021C14A116000E000BF00BF704710B502
:1007E00001460022002300204A11012A02D1BA4CFE
:1007F000236806E0022A02D1B74C236A01E0B64C16
:10080000636A01F01F02012494401C400CB10120D6
:1008100000E0002010BD38B5002000900024002525
:1008200000BF3120FFF7DBFF05460098401C009019
:100830000098B0F5A06F01D0002DF2D03120FFF765
:10084000CEFF08B1012400E00024204638BD014657
:100850000020A14A106820F0F80040EAC1001060B2
:100860007047A04908607047024600209A4B5868BC
:1008700020F47C1042EA01031843974B58607047FC
:1008800098490866704701460020934A506820F056
:1008900003000843506070478F48406800F00C0028
:1008A0007047014600208C4A506820F0F000084351
:1008B0005060704701460020874A506820F4E0608D
:1008C00008435060704701460020834A506820F476
:1008D000605040EAC1005060704729B17E4A527AA8
:1008E00002437D4B5A7204E07B4A527A82437A4B30
:1008F0005A7270477B49D831086070470146002022
:10090000754A506820F44040084350607047002109
:10091000714A20321170704A82F82010012802D0EA
:1009200004280AD104E001216B4A2032117005E04D
:100930000521694A2032117000E000BF00BF7047F6
:100940006949086070476449096A0143624A116253
:100950007047654944390860704730B5002100226E
:10096000002400235C4D6D6805F00C0121B10429C1
:1009700005D0082923D105E05C4D056022E05B4DE0
:1009800005601FE0544D6D6805F47012524D6D689E
:1009900005F48034022505EB92421CB9544D5543B1
:1009A00005600BE04C4D6D6805F400351DB1504DF0
:1009B0005543056002E04D4D5543056002E04B4D47
:1009C000056000BF00BF444D6D6805F0F0010909E6
:1009D000484D6B5C0568DD4045603F4D6D6805F432
:1009E000E061090A434D6B5C4568DD4085603A4D26
:1009F0006D6805F46051C90A3E4D6B5C4568DD4089
:100A0000C560354D6D6805F44041890B3A4D6B5C0E
:100A1000C568B5FBF3F5056130BD29B12E4A5269B1
:100A200002432D4B5A6104E02B4A526982432A4B00
:100A30005A61704729B1284A92690243264B9A614C
:100A400004E0254A92698243234B9A61704729B199
:100A5000214AD2690243204BDA6104E01E4AD2697E
:100A600082431D4BDA61704729B11B4AD2680243A9
:100A7000194BDA6004E0184AD2688243164BDA60F8
:100A8000704729B1144A12690243134B1A6104E0FA
:100A9000114A12698243104B1A617047124940395A
:100AA000086070470F49C86470470B49C8717047A8
:100AB0000948406A40F08070074948627047014623
:100AC0000020054A92680A400AB1012000E0002097
:100AD0007047014988727047001002400000FFF81B
:100AE000FFFFF6FE000042428004424200127A00FC
:100AF00000093D00240000203400002010B5044609
:100B0000BE48844208D101218014FFF7ADFF0021C7
:100B1000A014FFF7A9FF16E0B948844208D10121CB
:100B20000014FFF7AEFF00212014FFF7AAFF0AE030
:100B3000B448844207D10121C013FFF7A2FF00216E
:100B4000E013FFF79EFF10BD10B50022028802F4EB
:100B500041520B884C8823438C882343CC88234301
:100B60000C8923434C8923438C892343CC89234319
:100B70001A430280838B4FF2FF74234083830B8AD6
:100B8000038210BD2DE9F04F85B005460C464FF0AD
:100B9000000902274FF000084FF0010B0026B24673
:100BA000A88B4FF240010840A88302202884B5F8A2
:100BB0001C90A068022801D100BF38E0A08810B9BD
:100BC0004FF0010B01E04FF0020B8D48854200D140
:100BD00000E000BF6846FFF7C0FEDDF800A0E08837
:100BE000B0F5007F0AD14FEA1A2000EB80004000E8
:100BF000A168B0FBF1F0401D86B20BE04FEA4B104C
:100C0000BAFBF0F000EB80004000A168B0FBF1F00F
:100C1000401D86B20A20B6FBF0F606F00108A6EBEE
:100C20000800C0F34F074FF6FF7000EA0828022FB4
:100C300001DBFF2F02DD02274FF00008E08840EAC9
:100C4000080038432884A088A189084361880843A4
:100C50002188084340F4006040EA0909A5F81C9087
:100C600005B0BDE8F08F0021018041808180C18006
:100C7000018141818181C181072101827047002169
:100C8000018041808180C1800221816000218181B9
:100C9000704721B1028842F04002028004E00288DD
:100CA0004FF6BF731A400280704721B1828B42F425
:100CB0008062828304E0828B4FF6FF331A40828386
:100CC000704730B5002400230C110125A540ABB2BC
:100CD0001AB185881D43858002E085889D43858003
:100CE00030BD1AB183880B43838002E083888B4335
:100CF00083807047818170470146888970474FF62D
:100D0000FF62914204D0028842F48072028004E0C3
:100D100002884FF6FF631A400280704721B1828833
:100D200042F00402828004E082884FF6FB731A408E
:100D30008280704702884FF2FF731A400280028857
:100D40000A4302807047018841F480510180704756
:100D500021B1028842F40052028004E002884DF67C
:100D6000FF731A400280704702460020012901D01B
:100D7000108B00E0908A70470146088A7047B1F5F1
:100D8000804F04D1028842F48042028004E002884D
:100D90004BF6FF731A400280704702460020138909
:100DA0000B400BB1012000E000207047CA430281D4
:100DB0007047F0B50246002000240023002501F012
:100DC0000F070126BE40B4B20B1101269E40B3B2FC
:100DD000968806EA03051689264016B10DB1012052
:100DE00000E00020F0BD10B5002201F00F04012347
:100DF000A3409AB2D343038110BD000000300140EC
:100E000000380040003C004010B50446FB488442D6
:100E100009D101218803FFF727FE00214FF480400C
:100E2000FFF722FE32E0F648844209D1012148044E
:100E3000FFF727FE00214FF40030FFF722FE25E0E8
:100E4000F048844209D101218804FFF71AFE0021ED
:100E50004FF48020FFF715FE18E0EB48844209D1DB
:100E60000121C804FFF70DFE00214FF40020FFF719
:100E700008FE0BE0E548844208D101210805FFF790
:100E800000FE00214FF48010FFF7FBFD10BD2DE99F
:100E9000F04786B005460E460024A24600BFA14694
:100EA0000027B08900B100BF2F462C8A4CF6FF7096
:100EB0000440F08804432C82AC894EF6F3100440C1
:100EC000B08831890843718908430443AC81AC8AF6
:100ED0004FF6FF400440B0890443AC8201A8FFF7FD
:100EE0003CFDC648874202D1DDF810A001E0DDF8E4
:100EF0000CA0A88900F4004040B10AEBCA0000EB46
:100F00000A1031684900B0FBF1F807E00AEBCA00AB
:100F100000EB0A1031688900B0FBF1F86420B8FBDF
:100F2000F0F004012009642101FB1089A88900F474
:100F3000004040B1322000EBC900B0FBF1F000F0FE
:100F40000700044308E0322000EB09106421B0FBE5
:100F5000F1F000F00F0004432C8106B0BDE8F087EB
:100F60004FF41651016000218180C18001810C2164
:100F7000418100218181704710B502460020108A0E
:100F80004FF2FF0318400B884C8823438C8823437F
:100F9000CC8823431843108210BD0021018041807A
:100FA0008180C180704721B1828942F400528281E0
:100FB00004E082894DF6FF731A4082817047F0B5D4
:100FC0000346002400260025002040F66A17B94297
:100FD00000D100BF1846C1F3421401F01F060127DB
:100FE00007FA06F5012C01D10C3004E0022C01D1E6
:100FF000103000E014301AB107682F43076002E098
:101000000768AF430760F0BD1AB1838A0B43838240
:1010100002E0838A8B4383827047028A4FF6F07323
:101020001A400282028A0A430282704782894FF282
:10103000FF731A40828182890A438281704721B1FD
:10104000828942F00202828104E082894FF6FD73B8
:101050001A4082817047028A4FF6DF731A4002827B
:10106000028A0A430282704721B1028A42F4804216
:10107000028204E0028A4BF6FF731A400282704734
:10108000C1F308028280704701468888C0F30800D7
:101090007047818941F0010181817047028BD2B292
:1010A0000283028B42EA012202837047028B02F420
:1010B0007F420283028B0A430283704721B1828AF6
:1010C00042F02002828204E0828A4FF6DF731A40E7
:1010D0008282704721B1828A42F01002828204E04B
:1010E000828A4FF6EF731A408282704721B1828A5A
:1010F00042F00802828204E0828A4FF6F7731A40B7
:101100008282704721B1828942F40042828103E0E9
:101110008289C2F30E028281704721B1828A42F431
:101120000062828204E0828A4FF2FF731A40828258
:101130007047828A4FF6FB731A408282828A0A4382
:101140008282704721B1828A42F00202828204E0E8
:10115000828A4FF6FD731A40828270470246002051
:10116000B1F5007F00D100BF13880B400BB1012007
:1011700000E00020704701F40072B2F5007F00D15A
:1011800000BFCA430280704770B5024600240023A6
:101190000025002040F66A16B14200D100BFC1F31D
:1011A000421501F01F03012606FA03F3012D02D1B7
:1011B0009689334006E0022D02D1168A334001E0C1
:1011C000968A33400C12012606FA04F4168834403D
:1011D00013B10CB1012000E0002070BD10B5002259
:1011E000002340F66A14A14200D100BF0A12012474
:1011F0009440A3B2DC43048010BD000000380140DD
:101200000044004000480040004C004000500040B6
:1012100010B50446CC48844208D101210420FFF7D0
:1012200023FC00210420FFF71FFC46E0C74884424E
:1012300008D101210820FFF717FC00210820FFF743
:1012400013FC3AE0C248844208D101211020FFF784
:101250000BFC00211020FFF707FC2EE0BD48844264
:1012600008D101212020FFF7FFFB00212020FFF7FC
:10127000FBFB22E0B848844208D101214020FFF75F
:10128000F3FB00214020FFF7EFFB16E0B348844258
:1012900008D101218020FFF7E7FB00218020FFF724
:1012A000E3FB0AE0AE48844207D101218015FFF735
:1012B000DBFB0021A015FFF7D7FB10BD10B5012106
:1012C0000846FFF7D1FB00210120FFF7CDFB10BD41
:1012D0002DE9F041024600250026002000230024CD
:1012E000002791F803C00CF00F0591F803C00CF033
:1012F000100CBCF1000F03D091F802C04CEA0505B8
:1013000091F800C0BCF1000F31D0146800202BE030
:101310004FF0010C0CFA00F3B1F800C00CEA030620
:101320009E4220D183004FF00F0C0CFA03F7BC4310
:1013300005FA03FC4CEA040491F803C0BCF1280F41
:1013400006D14FF0010C0CFA00FCC2F814C00AE000
:1013500091F803C0BCF1480F05D14FF0010C0CFA15
:1013600000FCC2F810C0401C0828D1D31460B1F8AA
:1013700000C0BCF1FF0F34DD546800202EE000F106
:10138000080C4FF0010808FA0CF3B1F800C00CEAA1
:1013900003069E4221D183004FF00F0C0CFA03F795
:1013A000BC4305FA03FC4CEA040491F803C0BCF109
:1013B000280F05D100F1080C08FA0CF8C2F81480C7
:1013C00091F803C0BCF1480F07D100F1080C4FF0B1
:1013D000010808FA0CF8C2F81080401C0828CED387
:1013E0005460BDE8F0814FF6FF71018002218170E9
:1013F0000421C17070470246002093680B400BB176
:10140000012000E0002070470146886880B27047E4
:1014100002460020D3680B400BB1012000E0002001
:1014200070470146C86880B27047016170474161EA
:1014300070470AB1016100E041617047C1607047C7
:101440004FF480320A4382618161826182698269DC
:10145000704702460020434B18684FF680731840CF
:1014600040EA021008433F4B186070473E49C8618C
:101470007047F0B50A46002300240021002500F043
:101480000046B6F1004F02D1364EF16901E0354E0B
:101490007168C0F3034583B200F44016B6F5401FEF
:1014A00008D121F070612F4E766826F070662D4FBE
:1014B0007E6012E000F48016B6F5801F06D1032688
:1014C00006FA05F4A14341F0706106E0460D3601CD
:1014D00003FA06F6B14341F0706122B1460D3601C0
:1014E00003FA06F6314300F00046B6F1004F02D190
:1014F0001C4EF16101E01B4E7160F0BD30B5002261
:101500008B071C0F0F2303FA04F2164B08338C10C1
:1015100053F824309343134C08348D1044F825308D
:1015200023468C1053F824308C07240F00FA04F45F
:1015300023430C4C08348D1044F8253030BD0A4943
:10154000DC3108607047000000080140000C0140D9
:10155000001001400014014000180140001C01402F
:1015600000200140000001400000204210B5044668
:10157000FE48844208D10121C014FFF775FA00210A
:10158000E014FFF771FAC4E0B4F1804F08D10121F3
:101590000846FFF776FA00210120FFF772FAB8E05B
:1015A000F348844208D101210220FFF76AFA0021A2
:1015B0000220FFF766FAACE0EE48844208D1012130
:1015C0000420FFF75EFA00210420FFF75AFAA0E09A
:1015D000E948844208D101210820FFF752FA00218E
:1015E0000820FFF74EFA94E0E448844208D1012134
:1015F0001020FFF746FA00211020FFF742FA88E09A
:10160000DF48844208D101212020FFF73AFA002167
:101610002020FFF736FA7CE0DA48844208D1012125
:101620004014FFF721FA00216014FFF71DFA70E063
:10163000D548844209D10121C804FFF715FA0021D9
:101640004FF40020FFF710FA63E0D048844209D13C
:1016500001210805FFF708FA00214FF48010FFF779
:1016600003FA56E0CA48844209D101214805FFF730
:10167000FBF900214FF40010FFF7F6F949E0C548E7
:10168000844208D101214020FFF7FBF900214020CE
:10169000FFF7F7F93DE0C048844208D101218020DE
:1016A000FFF7EFF900218020FFF7EBF931E0BB48AD
:1016B000844208D101218015FFF7E3F90021A0152C
:1016C000FFF7DFF925E0B648844209D1012108047B
:1016D000FFF7CAF900214FF48030FFF7C5F918E091
:1016E000B048844209D101214804FFF7BDF9002127
:1016F0004FF40030FFF7B8F90BE0AB48844208D153
:1017000001218804FFF7B0F900214FF48020FFF792
:10171000ABF910BD00220288944B98420ED0994B31
:1017200098420BD0B0F1804F08D0914B984205D031
:10173000904B984202D0904B984204D14FF68F7351
:101740001A404B881A438D4B984207D08C4B9842D5
:1017500004D04FF6FF431A40CB881A4302808B888F
:1017600083850B880385814B98420BD0854B98422B
:1017700008D08B4B984205D08A4B984202D08A4BB6
:10178000984201D10B7A038601238382704770B59A
:10179000002400220023058C4FF6FE763540058498
:1017A000028C8388048B4FF68F752C40B51E2C401D
:1017B0000D882C43751E2A400D892A434D882A43E3
:1017C0006A4DA8420BD06F4DA84208D0744DA84274
:1017D00005D0744DA84202D0734DA84213D14FF6E4
:1017E000F7752A404D892A434FF6FB752A408D88AC
:1017F0002A434FF6FF652B404FF6FF552B408D894E
:101800002B43CD892B4383800483CD888586028436
:1018100070BD70B5002400220023058C4FF6EF76D2
:1018200035400584028C8388048B48F6FF752C4074
:101830004FF6FF452C400D884FF6FF7606EA05254A
:101840002C434FF6DF752A400D8906EA05152A4319
:101850004D8806EA05152A43444DA84202D0494D59
:10186000A8421DD14FF67F752A404D894FF6FF766D
:1018700006EA05152A434FF6BF752A408D8806EA09
:1018800005152A434FF6FF352B404FF2FF752B40CD
:101890008D8906EA85052B43CD8906EA85052B430C
:1018A00083800483CD880587028470BD70B50024D1
:1018B00000220023058C4FF6FF6635400584028C1C
:1018C0008388848B4FF68F752C404FF6FC752C4027
:1018D0000D882C434FF6FF552A400D894FF6FF76B1
:1018E00006EA05252A434D8806EA05252A431F4DA9
:1018F000A84202D0234DA8421DD14FF2FF752A40C5
:101900004D894FF6FF7606EA05252A434FF6FF3547
:101910002A408D8806EA05252A434EF6FF752B409E
:101920004DF6FF752B408D8906EA05152B43CD89B1
:1019300006EA05152B4383808483CD88858702843E
:1019400070BD70B5002200230024058C4EF6FF7692
:1019500035400584038C8488828B48F6FF752A40C5
:101960004FF6FF452A400D8820E00000002C014082
:101970000004004000080040000C0040001000403F
:101980000014004000340140004C01400050014070
:101990000054014000180040001C0040002000409E
:1019A0000040014000440140004801404FF6FF76EE
:1019B00006EA05252A434DF6FF752B400D8906EAF8
:1019C00005352B434D8806EA05352B43FA4DA842D1
:1019D00002D0FA4DA84208D14BF6FF752C408D89F4
:1019E0004FF6FF7606EA85152C4384808283CD88E6
:1019F000A0F84050038470BD828B4FF2FF331A4031
:101A00008283828B4FF6FF7303EA01231A4382839A
:101A10007047F0B50C461546002200210026078CC1
:101A20004EF6FF7C07EA0C070784828B018C4FF689
:101A3000FF7707EA043640F6FF473A404FF6FF7754
:101A400007EA05273A434FF6FF7707EA03373A4399
:101A5000D94FB8420ED0D94FB8420BD0B0F1804F19
:101A600008D0D74FB84205D0D64FB84202D0D64F93
:101A7000B84206D14DF6FF77394046F480573943D6
:101A800005E047F6FF57394044F4805739438283D5
:101A90000184F0BD828B4FF6F3731A408283828BF0
:101AA0000A4382837047F0B50C4615460022002198
:101AB0000026078C4FF6FF6C07EA0C070784828B21
:101AC000018C4FF6FF7707EA04264FF60C773A4071
:101AD0004FF6FF7707EA03172F433A43B64FB84252
:101AE0000ED0B64FB8420BD0B0F1804F08D0B44FF3
:101AF000B84205D0B34FB84202D0B34FB84206D176
:101B00004FF6FF57394046F48077394305E04FF2EE
:101B1000FF57394044F48077394382830184F0BD14
:101B2000028B4FF2FF331A400283028B4FF6FF7392
:101B300003EA01231A4302837047F0B50C461546A9
:101B4000002200210026078C4FF6EF7C07EA0C07E5
:101B50000784028B018C4FF6FF7707EA041640F6E4
:101B6000FF473A404FF6FF7707EA03373A434FF60D
:101B7000FF7707EA05273A438F4FB8420ED08F4FC1
:101B8000B8420BD0B0F1804F08D08D4FB84205D08D
:101B90008C4FB84202D08C4FB84206D14FF6DF7757
:101BA000394046F01007394305E04FF65F7739407A
:101BB00044F01007394302830184F0BD028B4FF6D5
:101BC000F3731A400283028B0A4302837047F0B515
:101BD0000C46154600220021068C4FF6FE773E404B
:101BE0000684028B018C4FF60C7632407E1C06EA8E
:101BF00003162E433243704EB0420ED06F4EB042A9
:101C00000BD0B0F1804F08D06D4EB04205D06D4E74
:101C1000B04202D06C4EB04206D14FF6FD76314054
:101C200044F00106314305E04FF6F576314044F0CB
:101C30000106314302830184F0BD70B505460C46B0
:101C40005D4885420ED05D4885420BD0B5F1804F8E
:101C500008D05B48854205D05A48854202D05A4890
:101C6000854200D100E000BF208850B92389A288B6
:101C700061882846FFF7ABFFE1882846FFF79EFF03
:101C800025E0208804280AD12389A2886188284673
:101C9000FFF753FFE1882846FFF742FF17E020884F
:101CA00008280AD12389A28861882846FFF7FBFE0D
:101CB000E1882846FFF7EEFE09E02389A2886188C3
:101CC0002846FFF7A6FEE1882846FFF795FE70BD7F
:101CD0002DE9F04105460C4600260127608808B929
:101CE000022600E00026A088012801D1022700E09A
:101CF00001272088A0B92389A28861882846FFF798
:101D000066FFE1882846FFF759FF23893A463146A6
:101D10002846FFF712FFE1882846FFF701FF13E08E
:101D20002389A28861882846FFF707FFE1882846B3
:101D3000FFF7F6FE23893A4631462846FFF747FF6C
:101D4000E1882846FFF73AFFBDE8F0810A884B8812
:101D50001A438B881A43CB881A430B891A434B8941
:101D60001A438B891A43A0F8442070474FF6FF713D
:101D7000818000210180C180418001727047002173
:101D8000018041808180C180018141818181C18147
:101D90007047002101804180012181800021C180A4
:101DA000018170470021018041808180C1800181D3
:101DB0004181818170470000002C014000340140C6
:101DC0000004004000080040000C004021B10288DF
:101DD00042F00102028004E002884FF6FE731A40CE
:101DE0000280704731B1B0F8442042F40042A0F8BC
:101DF000442005E0B0F84420C2F30E02A0F84420CD
:101E000070471AB183890B43838102E083898B4336
:101E1000838170478182704741EA0203A0F848300D
:101E200070471AB183890B43838102E083898B4316
:101E30008381704701894FF6F87211400181704724
:101E40000A46002101894FF68F7319401143018121
:101E5000704730B504460D4629462046FFF7F0FF8F
:101E6000208940F00700208130BD2DE9F041044673
:101E70000D4616461F46602D06D13B4601223146CF
:101E80002046FFF75AFE05E03B4601223146204638
:101E9000FFF79DFE29462046FFF7D2FF208940F03C
:101EA00007002081BDE8F08130B50C460021018992
:101EB000C9B24FF6FF7505EA0325154325432943AB
:101EC000018130BD2DE9F04105460E461746984682
:101ED000002443463A4631462846FFF7E5FF2C8961
:101EE0004FF6F870044044F007044FF68F7004403A
:101EF00044F070042C81BDE8F081F0B504460D4635
:101F000016461F463B46324629462046FFF7CCFF81
:101F1000208940F480402081F0BD01858282704795
:101F20000A46002101884FF68F7319401143018042
:101F30007047F0B50C4615461E46002100220023CE
:101F40000189028B038C4FF6F877394021434FF615
:101F5000FC473A4040F201173A434FF6DD773B40E9
:101F60004FF6FF7707EA06172F433B4301810283B1
:101F70000384F0BD0A460021018B4FF68F73194090
:101F80001143018370470A460021018B48F6FF7315
:101F900019404FF6FF7303EA022319430183704788
:101FA0000A460021818B4FF68F73194011438183BC
:101FB00070470A460021818B48F6FF7319404FF69F
:101FC000FF7303EA022319438183704721B102881A
:101FD00042F08002028004E002884FF67F731A40CC
:101FE0000280704721B1828842F00402828004E0BE
:101FF00082884FF6FB731A408280704721B1828835
:1020000042F00802828004E082884FF6F7731A409B
:102010008280704721B1828842F00102828004E010
:1020200082884FF6FE731A40828070470A4600216C
:10203000018B4FF6F77319401143018370470A462D
:102040000021018B4FF2FF7319404FF6FF7303EA33
:1020500002231943018370470A460021818B4FF602
:10206000F77319401143818370470A460021818B21
:102070004FF2FF7319404FF6FF7303EA022319432F
:10208000818370470A460021018B4FF6FB7319408C
:102090001143018370470A460021018B4FF6FF333D
:1020A00019404FF6FF7303EA022319430183704777
:1020B0000A460021818B4FF6FB731940114381833F
:1020C00070470A460021818B4FF6FF3319404FF6C7
:1020D000FF7303EA02231943818370470A460021F4
:1020E000018B4FF67F7319401143018370470A46F5
:1020F0000021018BC1F30E014FF6FF7303EA0223A7
:102100001943018370470A460021818B4FF67F7384
:1021100019401143818370470A460021818BC1F326
:102120000E014FF6FF7303EA0223194381837047C0
:102130000A460021018C4FF6FD73194011430184BA
:1021400070470A460021018C4FF6F773194011437E
:10215000018470470A460021018C4FF6DF73194055
:102160004FF6FF7303EA02131943018470470A46CE
:102170000021018C4FF67F7319404FF6FF7303EA7D
:1021800002131943018470470A460021018C4FF65F
:10219000FF5319404FF6FF7303EA022319430184EA
:1021A00070470A460021018C4FF2FF7319404FF629
:1021B000FF7303EA02231943018470470A46002192
:1021C000018C4DF6FF7319404FF6FF7303EA02339B
:1021D00019430184704730B5002301248C40A3B219
:1021E000048C9C430484048C02FA01F5ADB22C43A8
:1021F000048430BD30B5002304248C40A3B2048C89
:102200009C430484048C02FA01F5ADB22C4304848F
:1022100030BD70B503460020002418461830012553
:102220008D40ACB21D8CA5431D8409B1082909D18C
:1022300000EB6100056825F0700505600568154331
:1022400005600EE00D1FC5F34E052844056825F412
:10225000E045056005684FF6FF7606EA022635433D
:10226000056070BD21B1028842F00202028004E0E4
:1022700002884FF6FD731A400280704721B1028830
:1022800042F00402028004E002884FF6FB731A4019
:102290000280704721B1828842F08002828004E08F
:1022A00082884FF67F731A408280704702884FF60B
:1022B000F7731A40028002880A43028070478288BE
:1022C0004FF68F731A40828082880A43828070475B
:1022D00002894FF6F8731A40028102890A4302818B
:1022E000704702894FF67F731A40028102890A43C0
:1022F000028170478184704781857047818670476D
:102300000187704781877047A0F8401070470288A6
:102310004FF6FF431A40028002880A43028070474A
:102320000146888E70470146088F70470146888FA6
:1023300070470146B1F8400070470146888C7047ED
:102340000146088D704702460020138A0B400BB1EE
:10235000012000E000207047CA430282704730B578
:102360000246002000230024158A05EA010395890E
:1023700005EA010413B10CB1012000E0002030BDDA
:10238000CA43028270470000002044490860091DCA
:102390000860091D0860091D086041483F49143163
:1023A0000860704700213D498279002A3AD00A46E8
:1023B000126803689A430B461A600A1D1268036884
:1023C0009A430B1D1A60027911440A6803681A4384
:1023D0000A60324A0832126803689A432F4B083366
:1023E0001A601A1D126803689A432C4B0C331A604A
:1023F0004279102A0ED11A1F126803681A43274B1C
:1024000008331A601A1D126803681A43234B0C33F1
:102410001A600DE02149427911440A6803681A43A1
:102420000A6005E0027911440A6803689A430A6069
:1024300070470021016001710C21417100218171FF
:1024400070471649103109680143144A103211606F
:10245000704701460020114A143212680A400AB13E
:10246000012000E0002070470C49143108607047DB
:10247000014600200022094B1B6803EA0102074BBA
:1024800014331B680B4013B10AB1012000E0002097
:102490007047024914310860704700000004014091
:1024A000FFFF0F000E49086070470D4948607047F4
:1024B0000B49886070474AF6AA20094908607047AE
:1024C0004CF6CC4006490860704701460020044A9B
:1024D000D2680A400AB1012000E0002070470000E5
:1024E0000030004010B50446FA48844208D101216A
:1024F0004015FEF7B9FA00216015FEF7B5FA17E0AE
:10250000F548844208D101210015FEF7ADFA0021FB
:102510002015FEF7A9FA0BE0F048844208D101210A
:10252000C803FEF7A1FA00214FF40040FEF79CFA21
:1025300010BD30B50246002000235068E84C204012
:102540000D790C6844EA0524204350609068E54CFE
:102550002040D1E902542C434D7944EA45042043FC
:102560009060D06A20F470000C7C641EE4B22343B7
:1025700040EA0350D06230BD002101600171417119
:102580008160C16001210174704721B1826842F00D
:102590000102826003E0826822F0010282607047DB
:1025A00021B1826842F48072826003E0826822F482
:1025B00080728260704710B50023CBB21AB14468B4
:1025C0001C43446002E044689C43446010BD816841
:1025D00041F0080181607047014600208A6802F0DE
:1025E00008020AB1012000E000207047816841F034
:1025F000040181607047014600208A6802F00402ED
:102600000AB1012000E00020704721B1826842F445
:10261000A002826003E0826822F4A0028260704718
:10262000014600208A6802F480020AB1012000E01D
:102630000020704710B50A4600210023416821F4AC
:102640006041531E41EA4331416010BD21B14268EF
:1026500042F40062426003E0426822F40062426099
:102660007047F0B504460D4600200021092D11DD0C
:10267000E068A5F10A0606EB4607072606FA07F109
:102680008843A5F10A0606EB460603FA06F108435D
:10269000E0600CE0206905EB4507072606FA07F124
:1026A000884305EB450603FA06F108432061072A33
:1026B0000FDA606B561E06EB86071F2606FA07F137
:1026C0008843561E06EB860605FA06F1084360634A
:1026D00022E00D2A0FDA206BD61F06EB86071F2695
:1026E00006FA07F18843D61F06EB860605FA06F1BF
:1026F0000843206310E0E06AA2F10D0606EB8607AE
:102700001F2606FA07F18843A2F10D0606EB86069E
:1027100005FA06F10843E062F0BD21B1826842F497
:102720008012826003E0826822F480128260704727
:102730000146C86C80B2704766484C3000687047EC
:1027400021B1426842F48062426003E0426822F4B0
:1027500080624260704721B1426842F48052426018
:1027600003E0426822F48052426070470A4600212A
:10277000816821F4E04111438160704721B1826892
:1027800042F40042826003E0826822F400428260E8
:10279000704721B1826842F40212826003E08268CD
:1027A00022F4021282607047014600208A6802F417
:1027B00000120AB1012000E000207047F0B5044685
:1027C0001546002000220026092911DDE068A1F14C
:1027D0000A0707EB470C072707FA0CF29043A1F111
:1027E0000A0707EB470703FA07F21043E0600CE023
:1027F000206901EB410C072707FA0CF2904301EB2B
:10280000410703FA07F210432061A06BC0F30156A1
:10281000EF1C06F1010CA7EB0C0707EB870C1F2739
:1028200007FA0CF29043EF1C06F1010CA7EB0C0722
:1028300007EB870701FA07F21043A063F0BD10B55C
:102840000A4600210023816B21F44011531E41EA06
:102850000351816310BD08B5002300930090009BD5
:102860000B440093009B1A6008BD08B50246002087
:102870000090009201F12800009B184400900098FD
:10288000006880B208BD0A4600214168164B194015
:102890001143416070474162826270470A460021DD
:1028A000416821F01F0111434160704740B109495F
:1028B0000831096841F40001064A0832116007E056
:1028C00004490831096821F40001024A0832116004
:1028D000704700000024014000280140003C0140F6
:1028E000FFFEF0FFFDF7F1FFFFFD3FFF0246002076
:1028F00013680B400BB1012000E000207047CA4371
:102900000260704770B502460020002300240B12BD
:102910005568CEB205EA060415681D4015B10CB124
:10292000012000E0002070BD00220A12D3430360A2
:102930007047000001684FF6FE72114001600021EF
:10294000016041608160C1608D49884208D18C4935
:102950000839496841F00F01894A083A51608AE014
:1029600087491431884208D185490839496841F0BE
:10297000F001834A083A51607DE08149283188425C
:1029800008D17F490839496841F470617C4A083AA6
:10299000516070E07A493C31884208D17849083961
:1029A000496841F47041764A083A516063E07449DD
:1029B0005031884208D172490839496841F4702180
:1029C0006F4A083A516056E06D496431884208D137
:1029D0006B490839496841F47001694A083A516005
:1029E00049E067497831884208D165490839496822
:1029F00041F07061624A083A51603CE061498842A6
:102A000006D1011F096841F00F01021F116032E079
:102A10005C491431884208D15A49091F096841F0BC
:102A2000F001584A121F116025E0564928318842AA
:102A300008D15449091F096841F47061514A121FB5
:102A4000116018E04F493C31884208D14D49091FB7
:102A5000096841F470414B4A121F11600BE049496B
:102A60005031884207D14749091F096841F4702154
:102A7000444A121F1160704710B50022026847F6E1
:102A8000F0739A430C6A8B6823430C6923434C69A7
:102A900023438C692343CC6923434C6A23438C6AC8
:102AA00023431A430260CB6843600B6883604B6822
:102AB000C36010BD0021016041608160C16001619F
:102AC00041618161C161016241628162704721B1EE
:102AD000026842F00102026004E002684FF6FE73F1
:102AE0001A40026070471AB103680B43036002E0AA
:102AF00003688B4303607047416070470146486834
:102B000080B2704701460020002201F080531BB1C3
:102B10001C4B083B1A6802E0194B083B1A6802EA92
:102B200001030BB1012000E00020704700F080514C
:102B300019B11449091F086002E0114908394860B9
:102B4000704701460020002201F080531BB10D4B5D
:102B5000083B1A6802E00A4B083B1A6802EA0103C4
:102B60000BB1012000E00020704700F0805119B146
:102B70000449091F086002E00149083948607047AC
:102B8000080002400804024010B510F093F910BD8F
:102B900010B510F0D4F910BD10B50446204612F05F
:102BA00099FA10BD10B53E480078012805D110F003
:102BB000E8F810F024FA10F0FFF810BD10B56FF02F
:102BC0000400FDF7AAFD374800683749B0FBF1F073
:102BD00036490870334800683349B0FBF1F441F2DC
:102BE000883044430520324908804FF0E0200069D6
:102BF00040F002004FF0E02108610846446100699E
:102C000040F00100086110BD2DE9F047074600269D
:102C10004FF0E020D0F814902448007807FB00F82B
:102C200000BFFFF7B1FF4FF0E020856911E04FF0E2
:102C3000E0208469AC420CD0AC4202D2281B06448E
:102C400003E0A9EB0400284406442546464500D38A
:102C500000E0ECE700BFFFF79BFFBDE8F08770B531
:102C600004460F480078A0B11248007888B910488F
:102C70000088844206DB0E48008894FBF0F5284665
:102C8000FFF78AFF0A48008894FBF0F100FB11402F
:102C900084B24FF47A7104FB01F0FFF7B5FF70BD09
:102CA0009E0100201000002000127A003800002051
:102CB0003A00002091010020014600BF704770B526
:102CC00004460D4600BF4021A548FEF747FA0028FC
:102CD000F9D0E1B2A248FEF7D3F9204670BD10B595
:102CE00086B00446012144F20400FDF7A3FE9C488F
:102CF000FEF78AF84FF40070ADF8140003208DF849
:102D0000160018208DF8170005A99648FEF7E0FA7E
:102D10004FF48060ADF8140004208DF8170005A969
:102D20009048FEF7D5FA01940020ADF80800ADF800
:102D30000A00ADF80C00ADF810000C20ADF80E0044
:102D400001A98748FEF7A3F825208DF8000003208D
:102D50008DF801008DF8020001208DF8030068460F
:102D6000FDF791FC012240F225517D48FEF727F93D
:102D700001217B48FEF717F906B010BD10B540F2EF
:102D800025517748FEF700FA10B37548FEF77CF935
:102D9000C4B27548008800F40040C8B97248008881
:102DA00000F4804060B10A2C03D000206E490880F6
:102DB00020E06D48008840F400406B49088019E02D
:102DC0000D2C06D16848008840F480406649088090
:102DD00010E065480088C0F30D0064490C54624857
:102DE0000088401C6049088008460088C72801DD2B
:102DF0000020088010BD10B586B0044601210520D2
:102E0000FDF718FE01214804FDF721FE0420ADF86E
:102E1000140003208DF8160018208DF8170005A95E
:102E20005048FEF755FA0820ADF8140004208DF83C
:102E3000170005A94B48FEF74BFA0220ADF8140025
:102E400010208DF8170003208DF8160005A94548BD
:102E5000FEF73EFA26208DF8000003208DF80100D1
:102E60008DF8020001208DF803006846FDF70BFC89
:102E700001940020ADF80800ADF80A00ADF80C0090
:102E8000ADF810000C20ADF80E0001A93848FDF790
:102E9000FEFF012240F225513548FEF790F801224D
:102EA00040F226613248FEF78AF801213048FEF7E9
:102EB0007AF806B010BD10B501202E490860002038
:102EC0002D4908702D480078012804DD2B48007832
:102ED000401E2A4908702A4801782548FEF7D0F894
:102EE00010BD10B540F225512148FEF74DF90128DB
:102EF00011D11F48FEF7C8F8C4B22248007819283B
:102F000008DA21481F49097844541E480078401CBB
:102F10001C49087022E040F226611548FEF734F99A
:102F200001281BD140211248FEF725F912480078EC
:102F30001249097888420CDA0F480078401C0E4983
:102F400008700F480A461278815C0948FEF798F825
:102F500004E00020074908600A49087010BD00001D
:102F6000003801400008014044000020240F0020E8
:102F70000044004084012142420000204100002022
:102F80001A0F002040000020B60E002008B50121D5
:102F90001020FDF74FFD4FF40060ADF80000102049
:102FA0008DF8030003208DF8020069460448FEF7FF
:102FB0008FF94FF400610248FEF737FA08BD0000B0
:102FC0000010014070B50546002405E0601CC4B245
:102FD000C82C01DD002070BD02218148FDF7DDFE17
:102FE0000028F3D029467E48FDF784FE002405E042
:102FF000601CC4B2C82C01DD0020ECE70121784838
:10300000FDF7CBFE0028F3D07548FDF775FEC0B282
:10301000E1E708B5012141F20400FDF70BFDE020D6
:10302000ADF8000018208DF8030003208DF8020091
:1030300069466C48FEF74CF9E0216A48FEF7F5F95D
:103040000020694908804FF4827048800020888001
:103050000220C880012008814002488138208881F0
:103060000020C881072008825D48FDF76DFD012121
:103070005B48FDF70EFEFF20FFF7A4FF08BD00B57B
:1030800087B001210820FDF7D5FC01218803FDF759
:10309000DEFC4FF46040ADF8180018208DF81B00DE
:1030A00003208DF81A0006A95048FEF711F90020F8
:1030B000ADF80400ADF80600ADF808000220ADF848
:1030C0000A000120ADF80C004002ADF80E0000200F
:1030D000ADF81200ADF8140001214548FDF7D9FD07
:1030E00001A94348FDF730FD012260214048FDF76A
:1030F000E8FD24208DF8000001208DF80100022059
:103100008DF8020001208DF803006846FDF7BBFA38
:1031100007B000BD324909884FF6C7721140304AE6
:10312000118011460988014311801146098841F038
:1031300040011180704710B504462D4800884FF6B5
:10314000C77108402A490880084600882043088043
:1031500001212748FDF79DFD10BD70B505460024EF
:1031600005E0601CC4B2C82C01DD002070BD022146
:103170001F48FDF712FE0028F3D029461C48FDF732
:10318000B9FD002405E0601CC4B2C82C01DD00209C
:10319000ECE701211648FDF700FE0028F3D01448A3
:1031A000FDF7AAFDC0B2E1E710B500240020FFF74B
:1031B000D4FF044624B101200E4908700E4908705E
:1031C00010BD10B50FF0DDFD60210948FDF7F1FDE0
:1031D000012801D1FFF7E8FF0FF0EEFD10BD000060
:1031E0000030014000080140EC0F0020000C0140BD
:1031F00000380040040000200300002070B50546A0
:103200000C4600260020FE49086004F01F0040EA3A
:1032100005063046FFF7D6FEFF20FFF7D3FE064631
:1032200004F0800018B1FF20FFF7CCFE0646012015
:10323000F3490860304670BD2DE9F04104460D4663
:10324000164600270020EE49086005F01F0040EAFE
:1032500004073846FFF7B6FE3046FFF7B3FE0120FD
:10326000E849C1F89001BDE8F08110B5044604F0CA
:103270006000E549097888420ED003221F21A02072
:10328000FFF7DAFFC4F341121F218020FFF7D4FFBC
:1032900004F06000DC49087010BD10B504462046FB
:1032A000FFF7E3FF21460020FFF7A8FF10BD70B530
:1032B00004460D462046FFF7D8FF2A462146402007
:1032C000FFF7BAFF70BD2DE9F04104460027D22078
:1032D000FFF7E3FF05462146D420FFF7E8FF45F05E
:1032E0000101D220FFF7E3FF01E0781C87B2EA205A
:1032F000FFF7D3FF00F0010018B14FF6FF708742CF
:10330000F3DB25F00101D220FFF7D1FFD820FFF732
:10331000C4FF0646D920FFF7C0FF46EA0026304624
:10332000BDE8F08110B50020FFF7CDFF00F48074F8
:10333000201210BD70B505460C4600262946D42043
:10334000FFF7B5FFE1B2D620FFF7B1FF2112D7207A
:10335000FFF7ADFF01E0701C86B2EA20FFF79DFF8A
:1033600000F0010018B14FF6FF708642F3DB70BD2C
:1033700010B57220FFF791FF00F01F0010BDF0B5EF
:1033800089B0002401211520FDF754FB1C20ADF865
:10339000200010208DF8230003208DF8220008A9BA
:1033A0009A48FDF795FF1C219848FEF73EF810203B
:1033B000ADF8200008A99648FDF78AFF102194482F
:1033C000FEF733F82020ADF8200048208DF82300C8
:1033D00008A98E48FDF77CFF05210220FEF78EF834
:1033E0002020019000208DF808000C208DF80900A5
:1033F00001208DF80A0001A8FEF7D4FF2020FFF776
:1034000048F817208DF8000001208DF801000020F9
:103410008DF8020001208DF803006846FDF733F9AE
:10342000FFF7F7FD00217B48FDF733FC0020ADF8E6
:103430000C004FF48270ADF80E000020ADF81000C3
:10344000ADF81200ADF814004FF40070ADF816009E
:103450003820ADF818000020ADF81A000720ADF8AC
:103460001C0003A96B48FDF76FFB01216948FDF7BC
:1034700010FC1020FFF74EFE6748056802206249E5
:1034800008720021604841728172290CC172290AB8
:10349000017345730020614908600A20FFF7DFFBD4
:1034A00001205F49C1F890010A20FFF7D8FBFF22F5
:1034B00000211046FFF7C0FE04E0601C84B201202A
:1034C000FFF7CDFB1D20FFF7E8FE00F0010008B973
:1034D000FA2CF2DBFA2C02DB012009B0F0BDFFF779
:1034E00047FF074639464FA011F086FF00204649A6
:1034F000486000210820FFF7DAFE00210920FFF7CD
:10350000D6FE10210A20FFF7D2FE1A210B20FFF76A
:10351000CEFE11210420FFF7CAFE1A210520FFF775
:10352000C6FEFF210620FFF7C2FE1F210720FFF77E
:10353000BEFE00210C20FFF7BAFE00210D20FFF790
:10354000B6FEB0213820FFF7B2FE3F212820FFF75A
:10355000AEFE30212920FFF7AAFEF9213020FFF727
:10356000A6FEF7213120FFF7A2FE0D21C020FFF7B4
:103570009EFE0021C120FFF79AFE3321C220FFF7F3
:1035800096FEEE21CA20FFF792FE0521CB20FFF721
:103590008EFE1521C420FFF78AFE1221C620FFF7F8
:1035A00086FE0C21C720FFF782FE1748017AE4202F
:1035B000FFF77DFE1448417AE520FFF778FE1248B8
:1035C000817AE220FFF773FE0F48C17AE320FFF70C
:1035D0006EFE0D48017BE020FFF769FE0A48417B43
:1035E000E120FFF764FE4FF480710020FFF7A2FE98
:1035F0004FF480711020FFF79DFE1F201EE0000099
:1036000090012142000021420010002000100140E2
:103610000008014000300140E8F7FF1F90012242FE
:1036200000002242454E4332384A363020566572F9
:1036300073696F6E3A25640D0A000000FFF715FEEE
:10364000CB221B218020FFF7F7FD04221F218020C1
:10365000FFF7F2FDFFF766FE08B1AEA000E0B0A0F4
:1036600006463146B1A011F0C7FE002035E770B51F
:1036700005460C460020B34908603A20FFF7A2FC3B
:1036800005E06D1E0020FFF79DFC2070641C002DDE
:10369000F7D1002020700120AA49086070BD70B5E4
:1036A00004460D460020A74908607A20FFF78AFCEF
:1036B00004E0641E2878FFF785FC6D1C002CF8D10F
:1036C0000120A049086070BD70B504460D4611F098
:1036D000D9FD064600BF1F20FFF7DFFD00F0080000
:1036E0000028F8D140F2EE50844209D90422C221C8
:1036F0008020FFF7A1FD09220E218020FFF79CFD0D
:1037000011210220FFF7D3FD1A210320FFF7CFFD7F
:1037100011202044C1B20620FFF7C9FD41F6112057
:103720002044C0F307210720FFF7C1FD0022114606
:103730007A20FFF781FD29462046FFF7B0FF0822D7
:103740001F218020FFF778FD1C20FFF7A6FD00F069
:10375000020020B108221F21A020FFF76DFD304696
:1037600011F094FD70BD2DE9F04105460F4611F0B2
:1037700089FD80463920FFF790FD10B90020BDE893
:10378000F08100BF1D20FFF788FD00F00400002835
:10379000F8D16D4801790020FFF789FD6A488088DB
:1037A000C0F307210120FFF782FD00213A20FFF737
:1037B00025FD6549486000213A20FFF71FFD624959
:1037C000496841EA00206049486000213A20FFF73B
:1037D00015FD044600213A20FFF710FD44EA0024BD
:1037E000241F00213A20FFF709FD064600213A2058
:1037F000FFF704FD46EA0026681EA04200D26C1EB8
:1038000006F0800008B9002403E039462046FFF79F
:103810002EFF4D4801790C20FFF749FD4A4880886A
:10382000C0F307210D20FFF742FD40221E2180201A
:10383000FFF702FD404611F029FD20469FE770B5D5
:1038400080221B21A020FFF7F7FC1C20FFF725FD9D
:10385000044604F0400030B140221C21A020FFF7B4
:10386000EBFC00F0C1FB04F0080020B108221C2191
:10387000A020FFF7E1FC04F00100002823D0012282
:103880001C21A020FFF7D8FC3920FFF706FD0646D3
:103890000D20FFF702FD05020C20FFF7FEFC05439B
:1038A000681C85B2E9B20C20FFF701FD29120D203A
:1038B000FFF7FDFC40221E218020FFF7BDFC3146B2
:1038C00022A011F099FD04F0020060B102221C2137
:1038D000A020FFF7B1FC12221D21A020FFF7ACFCB5
:1038E00022A011F089FD80221B211046FFF7A4FCC5
:1038F00070BD10B50FF045FA2020FEF7CAFD01E0BB
:10390000FFF79DFF1C4800680028F9D00FF054FA1B
:1039100010BD000046756C6C204475706C657800B5
:1039200048616C66204475706C657800454E433282
:10393000384A3630204475706C65783A25730D0A24
:10394000000000009001214200100020BDD3CAD524
:10395000B4EDCEF3A3A1BDD3CAD5B5BDCAFDBEDDBE
:10396000B0FCB8F6CAFD3A25640D0A00B7A2CBCD6B
:10397000B4EDCEF3210D0A00140122427FB50546B5
:103980000C4601210220FDF762F8ADF80850ADF8B1
:1039900004400020ADF80A00ADF8060001A9134864
:1039A000FDF7B8FE012211461048FEF72AFA1D2045
:1039B0008DF8000001208DF8010003208DF8020031
:1039C00001208DF803006846FCF75DFE01210748E1
:1039D000FEF7FCF97FBD10B501210448FEF7BFFCDE
:1039E00001210248FEF7CCFC10BD0000000400409D
:1039F00070B505460C4645F25550FEF753FD284676
:103A0000FEF753FD2046FEF753FDFEF754FDFEF78B
:103A100057FD70BD10B5FEF74EFD10BD70B50246E6
:103A20000C46FF25FF2309E012F8010B80EA05018F
:103A30008948405C80EA03058848435C2000A4F183
:103A40000106B4B2F0D143EA052070BDF0B50646D8
:103A50000D46144621462846FFF7E0FF0746381278
:103A6000285529194F70601CC4B2601CC4B203E011
:103A700028783070761C6D1C2000A4F10101CCB2B6
:103A8000F6D1F0BD2DE9F04188B007460E46144648
:103A90001D468DF8007003208DF8010020128DF86E
:103AA0000200E0B28DF8030028128DF80400E8B29D
:103AB0008DF805004FF00608424669463046FFF78C
:103AC000C5FF082066490870FFF7F5F9082008B01F
:103AD000BDE8F0812DE9F04780460C4691461E4630
:103AE000A01910F8027CA01910F8010C00EB0720B7
:103AF00087B2B01E81B22046FFF790FF824657453D
:103B00001AD16078032802D0812811D10CE0002559
:103B100006E06019C07808EB09014855681CC5B279
:103B2000A078A842F5DC06E04FF0FF30BDE8F08752
:103B30004FF0FF30FAE700BF0020F7E710B5022092
:103B4000484908700846007802281AD1464800788B
:103B5000012816D10020087015230022424943484D
:103B6000FFF7B8FF002406E04048015D404AA01D71
:103B70001154601CC4B2102CF6DB01203D490870C2
:103B80003EE03848007802281BD1374800780228E8
:103B900017D10020334908701523102232493348C9
:103BA000FFF798FF102406E03048015D304AA01D61
:103BB0001154601CC4B2202CF6DB01202D49087082
:103BC0001EE02848007802281AD1274800780328E8
:103BD00016D10020234908700B23202222492348B4
:103BE000FFF778FF202406E02048015D204AA01D51
:103BF0001154601CC4B2262CF6DB01201D4908704C
:103C000000201D4908701D48007801280AD10823AA
:103C100000221B4919480078FFF734FF022017499A
:103C2000087017E01548007802280AD108230022FE
:103C3000134912480078FFF725FF03200F49087049
:103C400008E0032300220E491846FFF71BFF01205E
:103C50000A49087010BD0000B4590108B45A01089F
:103C60004100002000000020B60E0020900E002031
:103C7000609D002046000020400000200100002040
:103C80001A0F002000B591B001214FF40470FCF729
:103C9000D1FE01210846FCF7C0FE4FF40040FCF7BE
:103CA0002DFE0F20ADF82C0000208DF82F000BA961
:103CB0003C48FDF70DFB3C48FEF714FC00200C903F
:103CC00001208DF8340000208DF835004FF460207D
:103CD0000E9000200F9002208DF840000CA9324871
:103CE000FEF727FC01213048FEF75AFC01212E483F
:103CF000FEF74BFC2C48FEF76AFC00BF2A48FEF793
:103D00006BFC0028FAD12848FEF770FC00BF26485B
:103D1000FEF771FC0028FAD1052301220A2122486E
:103D2000FEF79FFC052302220B211F48FEF799FC9A
:103D30001E48FEF7FFFD1C484C3000901C480190C7
:103D40000020029002200390002004908020059023
:103D50004000069080000790202008900002099003
:103D600000200A9069461148FEF786FE11B000BD9A
:103D700010B5044601210D48FEF7A9FE01210A48AD
:103D8000FEF743FC00BF0220FEF7BCFE0128FAD17B
:103D90000220FEF7CBFE06480088208004484088B9
:103DA000608010BD00100140002401400800024066
:103DB0004A00002070B503460C4603E014F8015B8E
:103DC00003F8015B1500A2F10102F7D170BD30B517
:103DD000034601E003F8011B1400A2F10102F9D12E
:103DE00030BD10B504467C4951F824104A007B4987
:103DF00051F824000021FFF7EAFF794951F8242007
:103E00007649083951F824000021FFF7E0FF01212D
:103E100072480830015510BD10B50146002300223C
:103E200007E06E4850F8210030F8120000B15B1C2A
:103E3000521C694850F821009042F2D8642058433F
:103E4000654C54F82140B0FBF4F0C0B210BD2DE930
:103E5000F04704460F460025A94660480830005D3B
:103E600020B95E4810380168204688471FB94FF0D6
:103E7000FF30BDE8F0875B4850F82400B7FBF0F056
:103E800086B2584850F82400B7FBF0F100FB1170DF
:103E900008B1701C86B2504850F82400451E22E03C
:103EA0004E4850F8240030F8150020B909F10100FF
:103EB0001FFA80F901E04FF00009B14512D14FF02F
:103EC000000808E0454850F8240005EB080120F8F8
:103ED000116008F10108B045F4D3424850F82400BD
:103EE0006843C6E76D1E002DDADA4FF0FF30C0E7F9
:103EF0002DE9F04104460E4638480830005D38B9D7
:103F0000364810380168204688470120BDE8F08116
:103F1000334850F82400B04217D9324850F82400F2
:103F2000B6FBF0F12D4850F8240030F811200025A0
:103F300007E00023294850F824004F1920F81730D3
:103F40006D1C9542F5DB0020E0E70220DEE770B54E
:103F500005460C4604B970BD2048083850F82500C5
:103F6000261A31462846FFF7C3FF00BFF3E770B5B6
:103F700004460E4631462046FFF769FF0546681C99
:103F800008B9002070BD1548083850F824002844AE
:103F9000F8E72DE9F04104460F4616463146204623
:103FA000FFF755FF0546681C10B90020BDE8F081F9
:103FB0000A49083951F82410481932463946FFF7A2
:103FC000F9FE39462046FFF7C2FF0448083850F88A
:103FD00024002844EAE70000B45B010860000020E8
:103FE000C45B0108BC5B010810B5864801F0C9FA42
:103FF00010BD10B5844801680020FFF7A8FF834872
:1040000001680020FFF7A3FF814801680020FFF747
:104010009EFF804801680020FFF799FF10BD70B532
:1040200003F062FB054629460020FFF7A0FF764912
:104030000860294678A011F0DFF941F61C042146FA
:104040000020FFF794FF71490860214679A011F024
:10405000D3F94FF47A610020FFF789FF6C490860BB
:104060004FF400710020FFF782FF6A49086066483C
:10407000006840B16548006828B16548006810B123
:104080000846006818B9FFF7B4FF012070BD002092
:10409000FCE7C0218171A822C271002202720A22AB
:1040A00042726A49097A01706849497A41706749E0
:1040B000897A81706549C97AC1706449097B017147
:1040C0006249497B4171C0218172A822C2720022DB
:1040D00002731E224273FF218173FF22C273027496
:1040E00000224274C0218174A822C2740022027589
:1040F0000122427500218175704710B586B0FFF727
:104100008EFF10B1012006B010BDFFF738F908B1DD
:104110000220F8E7002108460EF0EFFB4C48FFF7BD
:10412000B8FF4B48407B01064948007B41EA00410B
:104130004748C07A41EA00204549897A08430590FA
:104140004348407C01064248007C41EA0041404827
:10415000C07B41EA00203E49897B084304903C48EB
:10416000407D01063A48007D41EA00413848C07C64
:1041700041EA00203649897C08430390344840795D
:1041800033490979324AD278CDE90021029030488A
:104190008378427801782FA011F02EF92C48407BCB
:1041A00000902B48037BC27A817A38A011F024F961
:1041B0002748407C00902648037CC27B817B3FA03F
:1041C00011F01AF92248407D00902148037DC27CFD
:1041D000817C46A011F010F950485149002203ABF0
:1041E000CDE90021029004AA05A9064803F0C9FB05
:1041F00004462CB1034803F00DFC024803F077FCA1
:10420000002080E7689C0020FC000020B000002017
:10421000700000206C0000206D656D705F6D656D35
:104220006F7279C4DAB4E6B4F3D0A1CEAA3A2564A9
:104230000D0A000072616D5F68656170C4DAB4E6F2
:10424000B4F3D0A1CEAA3A25640D0A0000100020D4
:10425000509C0020CDF8BFA8656EB5C44D4143B554
:10426000D8D6B7CEAA3A2E2E2E2E2E2E2E2E2E2E6B
:104270002E2E2E2E2E2E25642E25642E25642E25E0
:10428000642E25642E25640D0A000000BEB2CCAC5D
:104290004950B5D8D6B72E2E2E2E2E2E2E2E2E2E9F
:1042A0002E2E2E2E2E2E2E2E2E2E2E2E2E2E256401
:1042B0002E25642E25642E25640D0A00D7D3CDF853
:1042C000D1DAC2EB2E2E2E2E2E2E2E2E2E2E2E2E6E
:1042D0002E2E2E2E2E2E2E2E2E2E2E2E2E2E2564D1
:1042E0002E25642E25642E25640D0A00C4ACC8CF8B
:1042F000CDF8B9D82E2E2E2E2E2E2E2E2E2E2E2E40
:104300002E2E2E2E2E2E2E2E2E2E2E2E2E2E2564A0
:104310002E25642E25642E25640D0A005B270108D6
:10432000B35500081FB5002542F23360824908806A
:104330008248407A01068148007A41EA00417F487C
:10434000C07941EA00207D49897908437C490860A9
:1043500044207C49087041204870542088704120D6
:10436000C870042008710E204871D3E076A011F0C7
:1043700043F800221146102009F09AFF76490860A0
:104380006D4802886E49744800680AF085F8064650
:1043900046B17148006809F0ECFF31466FA011F09A
:1043A0002BF8B7E0002E79D10A206B490968C86163
:1043B0000123704A70496848006809F0ECFF6D48B5
:1043C00001885E48407ACDE900015C48037AC279F1
:1043D00081796AA011F010F88DE003AA00217248DB
:1043E00000680FF07BFC0020012340F21442554985
:1043F0000090594800680AF025FC0646AEB16BA053
:1044000010F0FAFF544800680AF025FD5248006891
:1044100009F0AFFF4948407A00904848037AC279D2
:10442000817965A010F0E8FF66E002A94A480068BB
:104430000AF023FB070032D110F024FF8046C82188
:10444000644811F063F90298046818E06089C5F1C6
:10445000C801884207D9C5F1C8025E4B5819616886
:1044600011F0BBF805E062895A4B5819616811F0E8
:10447000B4F860890544C82D00D902E02468002CF6
:10448000E4D100BF404610F001FF0025514952A081
:1044900010F0B2FF02980CF0F8F816E031E007F1E6
:1044A0000C0090B92C4800680AF0D5FC2A48006836
:1044B00009F05FFF2148407A00902048037AC279D2
:1044C00081793DA010F098FF16E007F10C0090B93B
:1044D000214800680AF0BFFC1F48006809F049FF46
:1044E0001648407A00901548037AC279817932A043
:1044F00010F082FF00E070E700BF39A010F07CFFF1
:1045000008E03CA010F078FF64230022114610461A
:1045100010F012FE2AE770B510F0B4FE054608232D
:10452000384A0021384810F08DFA0446284610F029
:10453000ADFE204670BD00008C000020509C002085
:1045400084000020609D00207463702069732073D4
:1045500074617274200A00007C0000207463702073
:10456000636F6E6E656374206572726F722025646E
:104570000A0D00008E00002088000020C1ACBDD3D1
:10458000C9CFB7FECEF1C6F725642E25642E25646B
:104590002E25642CB1BEBBFAB6CBBFDABAC5CEAA03
:1045A0003A25640D0A0000000C000020B7A2CBCD14
:1045B000CAA7B0DC0D0A0000B7FECEF1C6F725642D
:1045C0002E25642E25642E2564B6CFBFAAC1ACBDAE
:1045D000D30D0A00989C002025730D0A00000000EE
:1045E000646464646464646464646464646464648B
:1045F0000000000074637020697320736C6565703F
:10460000200D0A0020A600202543000810B504460E
:1046100004EB8400FD4951F8200070B100BF00BFD9
:1046200004EB8401F94A52F8210003F021FB002039
:1046300004EB8401F54A42F82100002004EB8401D8
:10464000F24A02EB8101887404EB840102EB8101E0
:10465000C87404EB840102EB8101886004EB8401DF
:1046600002EB8101486004EB8400114601EB8000FD
:10467000E7490A68C2608988018210BD70B500BF31
:1046800000BF00243FE004EB8400E04901EB800020
:10469000857C35B304EB840001EB8000C07C401CBA
:1046A00004EB8401D94A02EB8101C87404EB840055
:1046B000114601EB8000C07CF0280DDA04EB840089
:1046C00001EB8000807C01280CD104EB840001EB1D
:1046D0008000C07C022805DB00BF00BF2046FFF73A
:1046E00095FF0EE004EB8400C84901EB8000807C5C
:1046F000032806D1022004EB8401C44A02EB8101A5
:104700008874601CC4B20A2CBDDB70BD2DE9FE4F5D
:10471000064688464FF00A09CA460A2700240020A8
:1047200002900190BB46009000BF6FE004EB840054
:10473000B64901EB8000857C0A2F04D11DB900BF6A
:1047400000BF67B260E0002D5ED000BF012D0AD02F
:10475000022D08DA00BFAFA340F22B12B7A1C7A009
:1047600010F04AFE00BF00BF6EB104EB8401A74AFF
:1047700002EB810130684968884204D100BF00BF64
:1047800060B2BDE8FE8F012D2AD104EB84009F4961
:1047900051F8200088B104EB840001EB8000C17C5B
:1047A0000098814230DB4FFA84FB04EB8400974988
:1047B00001EB8000C07C009026E004EB840093496C
:1047C00001EB8000C17C029881421DDB4FFA84F925
:1047D00004EB84008D4901EB8000C07C029013E063
:1047E000022D11DB04EB8400884901EB8000C17CC1
:1047F0000198814208DB4FFA84FA04EB8400834974
:1048000001EB8000C07C0190601CC4B20A2C8DDBDF
:1048100008F0020020B90A2F07D108F0010020B9E2
:1048200000BF00BF4FF0FF30ABE70A2F02DAFCB247
:1048300000BF3AE0BAF10A0F14DA0AF0FF0400BF31
:1048400000BF00BF04EB8400704951F8200040B164
:1048500000BF70A340F2711293A188A010F0CCFDAC
:1048600000BF12E0B9F10A0F03DA09F0FF0400BF3C
:104870000BE0BBF10A0F03DA0BF0FF0400BF04E00A
:1048800000BF00BF4FF0FF307BE700BF0A2C08DB02
:1048900000BF60A340F2831289A178A010F0ACFDA4
:1048A00000BF00BF2046FFF7B1FE00BF0A2C08DBA7
:1048B00000BF58A340F2871281A170A010F09CFDA8
:1048C00000BF00BF00BF04EB8400504901EB800033
:1048D000807C40B100BF4FA34FF4C4727DA167A09C
:1048E00010F08AFD00BF00BF36B104EB8401474AD7
:1048F00002EB810130684860002004EB8401434AE8
:1049000002EB8101C87460B23BE72DE9F041044637
:104910000E4617469846756800BF94F82200062890
:1049200008D000BF3BA340F2A312754953A010F07A
:1049300063FD00BF00BFD8F800002860B8F804008D
:10494000A8803868C5F80600B88868810820A88162
:1049500000BF00BF31462046A2699047BDE8F08104
:104960002DE9F04706460D461746984600BF96F8D3
:104970002200062808D000BF26A340F2C31261A17E
:104980003EA010F039FD00BF00BF00BF00BF5DB109
:10499000286848B13146286801F028FC20B92878F9
:1049A00000F0F000E02805D100BF00BF6FF00D005F
:1049B000BDE8F08741462846FFF7A8FE0446002CD4
:1049C00001DA2046F4E7022004EB84010F4A02EBEF
:1049D0008101887404EB8400114601EB800086603D
:1049E00000BF00BF04EB840001EB80003968C160A8
:1049F000B9880182002004EB840102EB8101C874B4
:104A000004EB8400114651F820008FE024A600201A
:104A1000D25B01082E2E5C4C5749505C6C77697054
:104A20002D312E342E315C7372635C6E6574696651
:104A30005C6574686172702E630000007374617449
:104A400065203D3D204554484152505F53544154E8
:104A5000455F50454E44494E47207C7C207374612D
:104A60007465203E3D204554484152505F535441A7
:104A700054455F535441424C4500000041737365F7
:104A80007274696F6E2022257322206661696C65DD
:104A900064206174206C696E6520256420696E2035
:104AA00025730D0A000000006172705F7461626C12
:104AB000655B695D2E71203D3D204E554C4C0000DC
:104AC00069203C204152505F5441424C455F53495C
:104AD0005A4500006172705F7461626C655B695D6C
:104AE0002E7374617465203D3D20455448415250F9
:104AF0005F53544154455F454D50545900000000E8
:104B0000A45D01086E657469662D3E687761646412
:104B1000725F6C656E203D3D204554484152505FA8
:104B20004857414444525F4C454E000098B104EB55
:104B3000840051F82090002004EB840142F8210009
:104B40003B4606F1230249463046FFF7DEFE484663
:104B500003F08EF800BF00202AE770B50546002458
:104B600012E004EB8400FC4901EB8000867C4EB12E
:104B700004EB840001EB80008068A84202D120464B
:104B8000FFF744FD601CC4B20A2CEADB70BD2DE9BE
:104B9000F04180460F4615461E4600BF0DB1002E5F
:104BA0000AD100BFAFF294134FF41872EBA1AFF229
:104BB000341010F021FC00BF00BF02213846FFF77F
:104BC000A5FD0446002C16DB04EB8400E24901EB52
:104BD0008000807C02280EDB04EB840001EB800067
:104BE0000C30286004EB840001EB8000001D306075
:104BF0002046BDE8F0814FF0FF30FAE72DE9FC4791
:104C000005468846164600BF65B900BFAFF2FC13E3
:104C100040F2BB22DAA1AFF29C1010F0EDFB00BF16
:104C2000BDE8FC8700BF70892A2805DA00BF00BFF5
:104C3000304603F01DF8F3E7776807F10E0420888B
:104C4000B0F5807F08D12079062805D16079042845
:104C500002D16088082805D000BF00BF304603F0AD
:104C600007F8DDE7D4F80E000190A0690090281D38
:104C700008B1686810B94FF0000907E0009869684A
:104C8000884201D1012000E000208146B9F1000FE7
:104C900001D0012000E00220034604F1080201A92E
:104CA0002846FFF75DFEE088B0F5807F03D0B0F5C1
:104CB000007F49D145E000BF00BFB9F1000F37D0F8
:104CC00000BF00BF022002F03BF9E080D4F80E00E4
:104CD000A0616868C4F80E0000BF95F8220006289D
:104CE0000AD000BFAFF2D42340F21132A849AFF28C
:104CF000742010F081FB00BF00BFA068C4F8120050
:104D0000A089E082A0683860A089B880D8F8000047
:104D1000A060B8F80400A081D8F80000C7F8060029
:104D2000B8F80400788131462846AA69904707E020
:104D3000281D08B1686808B900BF01E000BF00BFC6
:104D400005E000BF00BF02E000BF00BF00BF00BF22
:104D5000304602F08DFF00BF62E72DE9F84F0746AD
:104D6000884691469A46DDF828B00020009000BFA2
:104D700057B900BFAFF2643340F2A54280A1AFF251
:104D8000043010F039FB00BF00BF00222A210320AD
:104D900002F0F6FF05462DB900BF00BF4FF0FF300F
:104DA000BDE8F88F00BF68892A280ADA00BFAFF291
:104DB0009C334FF4966277A1AFF2403010F01CFBA9
:104DC00000BF00BF6E6806F10E0400BF00BF0D9863
:104DD00002F0B6F8E08000BF97F8220006280AD05B
:104DE00000BFAFF2D0334FF497626949AFF274302D
:104DF00010F002FB00BF00BFDAF80000A060BAF8B4
:104E00000400A0810B980168C4F812108088E08229
:104E1000D9F800003060B9F80400B080D8F800007C
:104E2000C6F80600B8F804007081DBF80000C4F88A
:104E30000E000C980068A0614FF48070208008205C
:104E4000608006202071042060714FF4C160B08141
:104E500029463846BA6990470090284602F008FF74
:104E6000002500989CE77FB504460D4600BF00BFB3
:104E70000121554A201D04F123038DE825000391EB
:104E8000524A19462046FFF768FF04B070BD70B55E
:104E900005460E46144600BF04EB84002E4901EB84
:104EA0008000807C02280ADA00BFAFF298434FF4FA
:104EB000537247A1AFF23C4010F09EFA00BF00BF12
:104EC00004EB8400244901EB8000807C022817D188
:104ED00004EB840001EB8000C07CE42810DB04EBD1
:104EE00084000A4602EB8000011D2846FFF7BBFF45
:104EF00030B9032004EB8401174A02EB8101887466
:104F000004EB8400144901EB800000F10C0305F16F
:104F1000230231462846FFF7F8FC70BD2DE9F05F0B
:104F200080460F46164608F123094FF0FF3A4146E6
:104F3000386801F05BF938B9387800F0F000E02803
:104F400002D00FB1386828B900BF00BF6FF00D0064
:104F5000BDE8F09F54E0000024A600206574685F5F
:104F600072657420213D204E554C4C202626206928
:104F7000705F72657420213D204E554C4C0000003E
:104F80006E6574696620213D204E554C4C00000032
:104F9000A45D0108636865636B20746861742066B2
:104FA0006972737420706275662063616E20686F29
:104FB0006C642073747275637420657468617270B8
:104FC0005F68647200000000D25B0108CC5B0108DE
:104FD0006172705F7461626C655B6172705F69645D
:104FE000785D2E7374617465203E3D2045544841C0
:104FF00052505F53544154455F535441424C450015
:1050000001213846FFF782FB0446002C07DA00BF77
:1050100000BF0EB100BF00BF2046BDE8F09F04EB0B
:105020008400F54901EB8000807C30B9012004EB5D
:105030008401F14A02EB8101887400BF04EB840013
:10504000ED4901EB8000807C012811D004EB840045
:1050500001EB8000807C02280ADA00BFAFF24C63CB
:1050600040F21942E5A1AFF2EC5010F0C5F900BFD3
:1050700000BF04EB8400E04901EB8000807C012844
:1050800000D03EB939464046FFF7EDFE82460EB9E4
:105090005046C2E700BF56B900BFAFF2886340F286
:1050A0002D42E0A1AFF22C6010F0A6F900BF00BFC6
:1050B00004EB8400D04901EB8000807C02280FDBE8
:1050C000DB490C7004EB8400CB4901EB800000F15C
:1050D0000C034A4631464046FFF717FC82465EE025
:1050E00004EB8400C44901EB8000807C012856D188
:1050F0004FF0000B354619E000BF688929898842C6
:105100000CD1286850B100BFAFF2F86340F23E42C4
:10511000C8A1AFF2986010F06FF900BF00BF287B04
:10512000012802D04FF0010B02E02D68002DE3D1E1
:1051300000BFBBF1000F10D029890022032002F02C
:105140001FFE05466DB13146284603F00FFB40B106
:10515000284602F08DFD002503E03546284603F081
:1051600093F9BDB104EB8400A34951F8200040B18C
:1051700000BF00BF04EB84019F4A52F8210002F0F7
:1051800077FD04EB84009C4941F820504FF0000A61
:1051900000BF03E000BF00BF4FF0FF3A00BF504622
:1051A0003BE72DE9FC4704460F461546A94600BFDC
:1051B0005CB900BFAFF2A47340F27532AFF2402188
:1051C000AFF2487010F018F900BF00BF00BF57B928
:1051D00000BFAFF2C07340F2763292A1AFF26470BA
:1051E00010F00AF900BF00BF00BF55B900BFAFF211
:1051F000DC7340F2773296A1AFF2807010F0FCF8C9
:1052000000BF00BF0E21384603F0CAF828B100BF26
:1052100000BF6FF00100BDE8FC872146286800F060
:10522000E5FF10B1DFF8388277E0287800F0F00071
:10523000E02815D101208DF8000000208DF8010034
:105240005E208DF80200687800F07F008DF8030082
:10525000A8788DF80400E8788DF80500E8465BE052
:105260002868A1680840D4E901121140884210D092
:10527000288880B24FF6A96188420AD004F10C0058
:1052800020B1E06810B104F10C0902E06FF00300F6
:10529000C1E76748007800EB8000574901EB8000C8
:1052A000807C022812DB6249097801EB8101524AB5
:1052B00002EB8101D9F800004968884206D15C48B8
:1052C000027839462046FFF7E2FDA4E700261BE0FE
:1052D00006EB8600484901EB8000807C022811DB48
:1052E00006EB8601444A02EB8101D9F800004968C7
:1052F000884207D14E490E70F2B239462046FFF778
:10530000C6FD88E7701C46B20A2EE1DB3A464946E4
:105310002046FFF703FE7EE700BF434604F1230269
:1053200039462046FFF7F1FA75E72DE9F0410446CA
:105330000E464FF00E0860890E2800DC56E06568C6
:1053400000BF00BFAF89287800F00100B0B1287815
:10535000012809D1687888B9A8785E280ED1607BC9
:1053600040F01000607309E006223D49284610F025
:10537000E9F818B9607B40F008006073082F03D08B
:10538000B7F5C16F2DD11FE096F8290000F020007D
:1053900000B92BE0C8F1000001B2204603F000F88C
:1053A00068B100BF00BFAFF6941340F24F522DA179
:1053B000AFF6381010F020F800BF00BF16E03146FD
:1053C000204600F00FFD0DE096F8290000F02000C7
:1053D00000B90BE0224606F123013046FFF70EFC30
:1053E00000E003E000BF0020BDE8F081204602F0AD
:1053F0003FFC0020F8E7000024A600206172705FE7
:105400007461626C655B695D2E7374617465203DC7
:105410003D2050454E44494E47206F722053544121
:10542000424C45007120213D204E554C4C0000005F
:10543000900000206E6F207061636B657420717541
:105440006575657320616C6C6F7765642100000081
:1054500069706164647220213D204E554C4C0000FF
:10546000CC5B010843616E2774206D6F7665206FF9
:105470007665722068656164657220696E2070616E
:10548000636B6574000000000146062081F822006D
:105490005648007881F8230054484278242042542A
:1054A00052488278252042545048C27826204254DF
:1054B0004E480279272042544C48427928204254D1
:1054C00040F2DC500884322081F829000020704727
:1054D0002DE9F04180460D46002729890020FEF77E
:1054E00046FD064616B942A00FF086FF2C4607E09F
:1054F0006289F019616810F070F8608907442468C7
:10550000002CF5D128893146FEF7DEF8314600201F
:10551000FEF71DFD0020BDE8F0812DE9F047814632
:105520004FF0000800254FF4C8610020FEF71FFD72
:10553000074637B1394640F2EE50FEF714F90646F9
:1055400005E033A00FF058FF2846BDE8F087B1B260
:105550000322104602F014FC054665B12C4608E013
:10556000628907EB0801606810F037F860898044B1
:105570002468002CF4D139460020FEF7E8FC2846C8
:10558000E3E770B504462046FFF7C7FF064616B9A5
:105590004FF0FF3070BD21463046226990470546E6
:1055A0002DB100BF00BF304602F062FB0026284646
:1055B000F0E710B5044600BF3CB900BF1CA366224B
:1055C00026A129A00FF018FF00BF00BF652084F8B6
:1055D0002A006E212B2001552E4860612E48A061C3
:1055E0002046FFF751FF002010BD0000509C002016
:1055F000B7A2CBCDCAFDBEDDBBBAB3E5C7F8C4DAEE
:10560000B4E6C9EAC7EBCAA7B0DC0D0A0000000087
:10561000BDD3CAD5CAFDBEDDBBBAB3E5C7F8C4DA8F
:10562000B4E6C9EAC7EBCAA7B0DC0D0A0000000067
:105630002E2E5C4C5749505C6C7769702D312E349E
:105640002E315C7372635C6E657469665C65746848
:1056500065726E657469662E630000006E6574691C
:1056600066213D4E554C4C00417373657274696FF1
:105670006E2022257322206661696C656420617446
:10568000206C696E6520256420696E2025730D0AE3
:1056900000000000A3510008D15400082DE9FE4F7E
:1056A000044689466668307800074FEA9068C8F17A
:1056B0000001204602F074FE10B92089042802D2AD
:1056C00000BF00BFE7E0606890F800A0606890F855
:1056D00001B0BAF1000F03D0BAF1080F77D100E0A2
:1056E000D4E00127A148007800F0F000E02800D1C4
:1056F00000279E490868494600F078FD00B1002760
:1057000037B900BF00BF204602F0B2FABDE8FE8FF5
:1057100000BF00BF2089082802D200BF00BFBAE046
:10572000204600F0D8FA28B100BF00BF204602F0A2
:105730009FFAEBE72221204602F032FE002853D0E8
:105740004146204602F02CFE00280AD000BF00BFD0
:1057500087A3982290A19DA00FF04EFE00BF00BF2E
:105760009DE021890022022002F00AFB074617B9BA
:1057700000BF00BF93E000BF798908F108008142B3
:1057800007D200BF7AA3A1229BA190A00FF034FE04
:1057900000BF00BF2146384602F0E8FF50B100BF0D
:1057A00000BF73A3A522A2A188A00FF025FE00BF11
:1057B00000BF74E07E68C8F1000001B2384602F014
:1057C000EFFD60B100BF00BF69A3AB2200E05AE06B
:1057D000A1A17EA00FF010FE00BF00BF5FE0204639
:1057E00002F046FA3C4610E06FF02101204602F03C
:1057F000D7FD50B100BF00BF5DA3B52296A173A035
:105800000FF0FAFD00BF00BF49E065685748006827
:10581000F0609E48006830610020287068884FF66C
:10582000F771884203D368880930688002E068888D
:1058300008306880FF2030720020708114213046CB
:1058400000F03FFA70814146204602F0A9FD48B1C0
:1058500000BF00BF46A3DB228DA15CA00FF0CCFDF2
:1058600000BF0FE001200021FF230A46CDE9010916
:1058700000913E49204600F09AFB07460FB100BF59
:1058800000BF00BF02E000BF00BF00BF00BF204656
:1058900002F0EEF93AE7204602F0EAF936E7204650
:1058A00002F0E6F900BF31E72DE9FE4306460F4658
:1058B000904600222421012002F062FA05461DB91B
:1058C00000BF00BFBDE8FE8300BF6889242808D25E
:1058D00000BF27A34FF49A7276A13CA00FF08CFD75
:1058E00000BF00BFD6F8049000BF00BF00BF00BFDC
:1058F00000BF00BF00BF00BF00BF00BF6C682770C3
:1059000084F801800020A080E08071686A6802F15C
:1059100008001C220FF061FE00206080698920468B
:1059200000F0CFF96080D9F80C000290012000212E
:10593000FF2302AACDE90010284600F0D7FB284635
:1059400002F096F900BFBDE770B505460C46224649
:1059500003212846FFF7A8FF70BD70B505460C4629
:1059600022460B212846FFF79FFF70BDA0000020B4
:105970002E2E5C4C5749505C6C7769702D312E345B
:105980002E315C7372635C636F72655C6970763430
:105990005C69636D702E630069636D705F696E7022
:1059A00075743A206D6F76696E6720702D3E706158
:1059B000796C6F616420746F206970206865616420
:1059C0006572206661696C65640A000041737365E5
:1059D0007274696F6E2022257322206661696C657E
:1059E00064206174206C696E6520256420696E20D6
:1059F00025730D0A00000000636865636B207468FE
:105A000061742066697273742070627566206361C8
:105A10006E20686F6C642073747275637420746890
:105A2000652049434D50206865616465720000003F
:105A300069636D705F696E7075743A20636F707919
:105A4000696E6720746F206E6577207062756620BE
:105A50006661696C65640A0069636D705F696E7088
:105A600075743A20726573746F72696E67206F7215
:105A70006967696E616C20702D3E7061796C6F6131
:105A800064206661696C65640A0000009C00002067
:105A900043616E2774206D6F7665206F7665722086
:105AA00068656164657220696E207061636B6574FE
:105AB00000000000636865636B2074686174206691
:105AC0006972737420706275662063616E20686FFE
:105AD0006C642069636D70206D6573736167650028
